{
  "_format": "hh-sol-artifact-1",
  "contractName": "ResourceShare",
  "sourceName": "contracts/Resource.sol",
  "abi": [
    {
      "inputs": [],
      "stateMutability": "nonpayable",
      "type": "constructor"
    },
    {
      "anonymous": false,
      "inputs": [
        {
          "indexed": true,
          "internalType": "uint256",
          "name": "_resourceId",
          "type": "uint256"
        }
      ],
      "name": "savingsEvent",
      "type": "event"
    },
    {
      "inputs": [
        {
          "internalType": "string",
          "name": "title",
          "type": "string"
        },
        {
          "internalType": "string",
          "name": "url",
          "type": "string"
        },
        {
          "internalType": "string",
          "name": "description",
          "type": "string"
        }
      ],
      "name": "addResource",
      "outputs": [],
      "stateMutability": "nonpayable",
      "type": "function"
    },
    {
      "inputs": [
        {
          "internalType": "uint256",
          "name": "resourceId",
          "type": "uint256"
        }
      ],
      "name": "getResource",
      "outputs": [
        {
          "components": [
            {
              "internalType": "uint8",
              "name": "id",
              "type": "uint8"
            },
            {
              "internalType": "address",
              "name": "creator",
              "type": "address"
            },
            {
              "internalType": "string",
              "name": "title",
              "type": "string"
            },
            {
              "internalType": "string",
              "name": "url",
              "type": "string"
            },
            {
              "internalType": "string",
              "name": "description",
              "type": "string"
            },
            {
              "internalType": "uint8",
              "name": "total_votes",
              "type": "uint8"
            }
          ],
          "internalType": "struct ResourceShare.Resource",
          "name": "",
          "type": "tuple"
        }
      ],
      "stateMutability": "view",
      "type": "function"
    },
    {
      "inputs": [],
      "name": "getResources",
      "outputs": [
        {
          "components": [
            {
              "internalType": "uint8",
              "name": "id",
              "type": "uint8"
            },
            {
              "internalType": "address",
              "name": "creator",
              "type": "address"
            },
            {
              "internalType": "string",
              "name": "title",
              "type": "string"
            },
            {
              "internalType": "string",
              "name": "url",
              "type": "string"
            },
            {
              "internalType": "string",
              "name": "description",
              "type": "string"
            },
            {
              "internalType": "uint8",
              "name": "total_votes",
              "type": "uint8"
            }
          ],
          "internalType": "struct ResourceShare.Resource[]",
          "name": "",
          "type": "tuple[]"
        }
      ],
      "stateMutability": "view",
      "type": "function"
    },
    {
      "inputs": [],
      "name": "numResource",
      "outputs": [
        {
          "internalType": "uint8",
          "name": "",
          "type": "uint8"
        }
      ],
      "stateMutability": "view",
      "type": "function"
    },
    {
      "inputs": [
        {
          "internalType": "uint256",
          "name": "",
          "type": "uint256"
        }
      ],
      "name": "resources",
      "outputs": [
        {
          "internalType": "uint8",
          "name": "id",
          "type": "uint8"
        },
        {
          "internalType": "address",
          "name": "creator",
          "type": "address"
        },
        {
          "internalType": "string",
          "name": "title",
          "type": "string"
        },
        {
          "internalType": "string",
          "name": "url",
          "type": "string"
        },
        {
          "internalType": "string",
          "name": "description",
          "type": "string"
        },
        {
          "internalType": "uint8",
          "name": "total_votes",
          "type": "uint8"
        }
      ],
      "stateMutability": "view",
      "type": "function"
    },
    {
      "inputs": [
        {
          "internalType": "uint256",
          "name": "resourceId",
          "type": "uint256"
        }
      ],
      "name": "voteResource",
      "outputs": [],
      "stateMutability": "nonpayable",
      "type": "function"
    }
  ],
  "bytecode": "0x60806040523480156200001157600080fd5b506000600160006101000a81548160ff021916908360ff160217905550620000e06040518060400160405280600c81526020017f66726565636f646563616d7000000000000000000000000000000000000000008152506040518060400160405280601d81526020017f68747470733a2f2f7777772e66726565636f646563616d702e6f72672f0000008152506040518060400160405280600d81526020017f4c6561726e20746f20636f646500000000000000000000000000000000000000815250620000e660201b60201c565b620004c9565b6000806000600160009054906101000a900460ff1660ff1681526020019081526020016000209050338160000160016101000a81548173ffffffffffffffffffffffffffffffffffffffff021916908373ffffffffffffffffffffffffffffffffffffffff16021790555060008160040160006101000a81548160ff021916908360ff1602179055506040518060c00160405280600160009054906101000a900460ff1660ff1681526020018260000160019054906101000a900473ffffffffffffffffffffffffffffffffffffffff1673ffffffffffffffffffffffffffffffffffffffff1681526020018581526020018481526020018381526020018260040160009054906101000a900460ff1660ff16815250600080600160009054906101000a900460ff1660ff16815260200190815260200160002060008201518160000160006101000a81548160ff021916908360ff16021790555060208201518160000160016101000a81548173ffffffffffffffffffffffffffffffffffffffff021916908373ffffffffffffffffffffffffffffffffffffffff1602179055506040820151816001019080519060200190620002a692919062000349565b506060820151816002019080519060200190620002c592919062000349565b506080820151816003019080519060200190620002e492919062000349565b5060a08201518160040160006101000a81548160ff021916908360ff1602179055509050506001600081819054906101000a900460ff16809291906200032a906200043c565b91906101000a81548160ff021916908360ff1602179055505050505050565b828054620003579062000406565b90600052602060002090601f0160209004810192826200037b5760008555620003c7565b82601f106200039657805160ff1916838001178555620003c7565b82800160010185558215620003c7579182015b82811115620003c6578251825591602001919060010190620003a9565b5b509050620003d69190620003da565b5090565b5b80821115620003f5576000816000905550600101620003db565b5090565b600060ff82169050919050565b600060028204905060018216806200041f57607f821691505b602082108114156200043657620004356200049a565b5b50919050565b60006200044982620003f9565b915060ff82141562000460576200045f6200046b565b5b600182019050919050565b7f4e487b7100000000000000000000000000000000000000000000000000000000600052601160045260246000fd5b7f4e487b7100000000000000000000000000000000000000000000000000000000600052602260045260246000fd5b61146d80620004d96000396000f3fe608060405234801561001057600080fd5b50600436106100625760003560e01c806319b7e5fb146100675780631e8fca2d14610083578063244d6daa146100b35780635612b146146100e85780636d81153d14610106578063c1cc57b014610122575b600080fd5b610081600480360381019061007c9190610d6b565b610140565b005b61009d60048036038101906100989190610e02565b61039b565b6040516100aa91906110b2565b60405180910390f35b6100cd60048036038101906100c89190610e02565b61060d565b6040516100df969594939291906110ef565b60405180910390f35b6100f061081b565b6040516100fd91906110d4565b60405180910390f35b610120600480360381019061011b9190610e02565b61082e565b005b61012a610882565b6040516101379190611090565b60405180910390f35b6000806000600160009054906101000a900460ff1660ff1681526020019081526020016000209050338160000160016101000a81548173ffffffffffffffffffffffffffffffffffffffff021916908373ffffffffffffffffffffffffffffffffffffffff16021790555060008160040160006101000a81548160ff021916908360ff1602179055506040518060c00160405280600160009054906101000a900460ff1660ff1681526020018260000160019054906101000a900473ffffffffffffffffffffffffffffffffffffffff1673ffffffffffffffffffffffffffffffffffffffff1681526020018581526020018481526020018381526020018260040160009054906101000a900460ff1660ff16815250600080600160009054906101000a900460ff1660ff16815260200190815260200160002060008201518160000160006101000a81548160ff021916908360ff16021790555060208201518160000160016101000a81548173ffffffffffffffffffffffffffffffffffffffff021916908373ffffffffffffffffffffffffffffffffffffffff16021790555060408201518160010190805190602001906102fe929190610bf9565b50606082015181600201908051906020019061031b929190610bf9565b506080820151816003019080519060200190610338929190610bf9565b5060a08201518160040160006101000a81548160ff021916908360ff1602179055509050506001600081819054906101000a900460ff168092919061037c90611358565b91906101000a81548160ff021916908360ff1602179055505050505050565b6103a3610c7f565b6000808381526020019081526020016000206040518060c00160405290816000820160009054906101000a900460ff1660ff1660ff1681526020016000820160019054906101000a900473ffffffffffffffffffffffffffffffffffffffff1673ffffffffffffffffffffffffffffffffffffffff1673ffffffffffffffffffffffffffffffffffffffff168152602001600182018054610443906112ac565b80601f016020809104026020016040519081016040528092919081815260200182805461046f906112ac565b80156104bc5780601f10610491576101008083540402835291602001916104bc565b820191906000526020600020905b81548152906001019060200180831161049f57829003601f168201915b505050505081526020016002820180546104d5906112ac565b80601f0160208091040260200160405190810160405280929190818152602001828054610501906112ac565b801561054e5780601f106105235761010080835404028352916020019161054e565b820191906000526020600020905b81548152906001019060200180831161053157829003601f168201915b50505050508152602001600382018054610567906112ac565b80601f0160208091040260200160405190810160405280929190818152602001828054610593906112ac565b80156105e05780601f106105b5576101008083540402835291602001916105e0565b820191906000526020600020905b8154815290600101906020018083116105c357829003601f168201915b505050505081526020016004820160009054906101000a900460ff1660ff1660ff16815250509050919050565b60006020528060005260406000206000915090508060000160009054906101000a900460ff16908060000160019054906101000a900473ffffffffffffffffffffffffffffffffffffffff1690806001018054610669906112ac565b80601f0160208091040260200160405190810160405280929190818152602001828054610695906112ac565b80156106e25780601f106106b7576101008083540402835291602001916106e2565b820191906000526020600020905b8154815290600101906020018083116106c557829003601f168201915b5050505050908060020180546106f7906112ac565b80601f0160208091040260200160405190810160405280929190818152602001828054610723906112ac565b80156107705780601f1061074557610100808354040283529160200191610770565b820191906000526020600020905b81548152906001019060200180831161075357829003601f168201915b505050505090806003018054610785906112ac565b80601f01602080910402602001604051908101604052809291908181526020018280546107b1906112ac565b80156107fe5780601f106107d3576101008083540402835291602001916107fe565b820191906000526020600020905b8154815290600101906020018083116107e157829003601f168201915b5050505050908060040160009054906101000a900460ff16905086565b600160009054906101000a900460ff1681565b6000806000838152602001908152602001600020905080600401600081819054906101000a900460ff168092919061086590611358565b91906101000a81548160ff021916908360ff160217905550505050565b60606000600160009054906101000a900460ff1660ff1667ffffffffffffffff8111156108d8577f4e487b7100000000000000000000000000000000000000000000000000000000600052604160045260246000fd5b60405190808252806020026020018201604052801561091157816020015b6108fe610c7f565b8152602001906001900390816108f65790505b50905060005b600160009054906101000a900460ff1660ff16811015610bf15760008060008381526020019081526020016000209050806040518060c00160405290816000820160009054906101000a900460ff1660ff1660ff1681526020016000820160019054906101000a900473ffffffffffffffffffffffffffffffffffffffff1673ffffffffffffffffffffffffffffffffffffffff1673ffffffffffffffffffffffffffffffffffffffff1681526020016001820180546109d6906112ac565b80601f0160208091040260200160405190810160405280929190818152602001828054610a02906112ac565b8015610a4f5780601f10610a2457610100808354040283529160200191610a4f565b820191906000526020600020905b815481529060010190602001808311610a3257829003601f168201915b50505050508152602001600282018054610a68906112ac565b80601f0160208091040260200160405190810160405280929190818152602001828054610a94906112ac565b8015610ae15780601f10610ab657610100808354040283529160200191610ae1565b820191906000526020600020905b815481529060010190602001808311610ac457829003601f168201915b50505050508152602001600382018054610afa906112ac565b80601f0160208091040260200160405190810160405280929190818152602001828054610b26906112ac565b8015610b735780601f10610b4857610100808354040283529160200191610b73565b820191906000526020600020905b815481529060010190602001808311610b5657829003601f168201915b505050505081526020016004820160009054906101000a900460ff1660ff1660ff1681525050838381518110610bd2577f4e487b7100000000000000000000000000000000000000000000000000000000600052603260045260246000fd5b6020026020010181905250508080610be99061130f565b915050610917565b508091505090565b828054610c05906112ac565b90600052602060002090601f016020900481019282610c275760008555610c6e565b82601f10610c4057805160ff1916838001178555610c6e565b82800160010185558215610c6e579182015b82811115610c6d578251825591602001919060010190610c52565b5b509050610c7b9190610cd1565b5090565b6040518060c00160405280600060ff168152602001600073ffffffffffffffffffffffffffffffffffffffff168152602001606081526020016060815260200160608152602001600060ff1681525090565b5b80821115610cea576000816000905550600101610cd2565b5090565b6000610d01610cfc8461118a565b611165565b905082815260208101848484011115610d1957600080fd5b610d2484828561126a565b509392505050565b600082601f830112610d3d57600080fd5b8135610d4d848260208601610cee565b91505092915050565b600081359050610d6581611420565b92915050565b600080600060608486031215610d8057600080fd5b600084013567ffffffffffffffff811115610d9a57600080fd5b610da686828701610d2c565b935050602084013567ffffffffffffffff811115610dc357600080fd5b610dcf86828701610d2c565b925050604084013567ffffffffffffffff811115610dec57600080fd5b610df886828701610d2c565b9150509250925092565b600060208284031215610e1457600080fd5b6000610e2284828501610d56565b91505092915050565b6000610e378383610f44565b905092915050565b610e4881611221565b82525050565b610e5781611221565b82525050565b6000610e68826111cb565b610e7281856111ee565b935083602082028501610e84856111bb565b8060005b85811015610ec05784840389528151610ea18582610e2b565b9450610eac836111e1565b925060208a01995050600181019050610e88565b50829750879550505050505092915050565b6000610edd826111d6565b610ee781856111ff565b9350610ef7818560208601611279565b610f008161140f565b840191505092915050565b6000610f16826111d6565b610f208185611210565b9350610f30818560208601611279565b610f398161140f565b840191505092915050565b600060c083016000830151610f5c6000860182611072565b506020830151610f6f6020860182610e3f565b5060408301518482036040860152610f878282610ed2565b91505060608301518482036060860152610fa18282610ed2565b91505060808301518482036080860152610fbb8282610ed2565b91505060a0830151610fd060a0860182611072565b508091505092915050565b600060c083016000830151610ff36000860182611072565b5060208301516110066020860182610e3f565b506040830151848203604086015261101e8282610ed2565b915050606083015184820360608601526110388282610ed2565b915050608083015184820360808601526110528282610ed2565b91505060a083015161106760a0860182611072565b508091505092915050565b61107b8161125d565b82525050565b61108a8161125d565b82525050565b600060208201905081810360008301526110aa8184610e5d565b905092915050565b600060208201905081810360008301526110cc8184610fdb565b905092915050565b60006020820190506110e96000830184611081565b92915050565b600060c0820190506111046000830189611081565b6111116020830188610e4e565b81810360408301526111238187610f0b565b905081810360608301526111378186610f0b565b9050818103608083015261114b8185610f0b565b905061115a60a0830184611081565b979650505050505050565b600061116f611180565b905061117b82826112de565b919050565b6000604051905090565b600067ffffffffffffffff8211156111a5576111a46113e0565b5b6111ae8261140f565b9050602081019050919050565b6000819050602082019050919050565b600081519050919050565b600081519050919050565b6000602082019050919050565b600082825260208201905092915050565b600082825260208201905092915050565b600082825260208201905092915050565b600061122c82611233565b9050919050565b600073ffffffffffffffffffffffffffffffffffffffff82169050919050565b6000819050919050565b600060ff82169050919050565b82818337600083830152505050565b60005b8381101561129757808201518184015260208101905061127c565b838111156112a6576000848401525b50505050565b600060028204905060018216806112c457607f821691505b602082108114156112d8576112d76113b1565b5b50919050565b6112e78261140f565b810181811067ffffffffffffffff82111715611306576113056113e0565b5b80604052505050565b600061131a82611253565b91507fffffffffffffffffffffffffffffffffffffffffffffffffffffffffffffffff82141561134d5761134c611382565b5b600182019050919050565b60006113638261125d565b915060ff82141561137757611376611382565b5b600182019050919050565b7f4e487b7100000000000000000000000000000000000000000000000000000000600052601160045260246000fd5b7f4e487b7100000000000000000000000000000000000000000000000000000000600052602260045260246000fd5b7f4e487b7100000000000000000000000000000000000000000000000000000000600052604160045260246000fd5b6000601f19601f8301169050919050565b61142981611253565b811461143457600080fd5b5056fea2646970667358221220de654477f43ad9e5cb2bdf083c992bdc9517012f7a2f83302fe91d98b19d279264736f6c63430008040033",
  "linkReferences": {},
  "deployedLinkReferences": {}
}