{
  "_format": "hh-sol-artifact-1",
  "contractName": "ResourceShare",
  "sourceName": "contracts/Resource.sol",
  "abi": [
    {
      "inputs": [],
      "stateMutability": "nonpayable",
      "type": "constructor"
    },
    {
      "anonymous": false,
      "inputs": [
        {
          "indexed": true,
          "internalType": "uint256",
          "name": "_resourceId",
          "type": "uint256"
        }
      ],
      "name": "savingsEvent",
      "type": "event"
    },
    {
      "inputs": [
        {
          "internalType": "string",
          "name": "title",
          "type": "string"
        },
        {
          "internalType": "string",
          "name": "url",
          "type": "string"
        },
        {
          "internalType": "string",
          "name": "description",
          "type": "string"
        }
      ],
      "name": "addResource",
      "outputs": [],
      "stateMutability": "nonpayable",
      "type": "function"
    },
    {
      "inputs": [
        {
          "internalType": "uint256",
          "name": "resourceId",
          "type": "uint256"
        }
      ],
      "name": "getResource",
      "outputs": [
        {
          "components": [
            {
              "internalType": "uint256",
              "name": "id",
              "type": "uint256"
            },
            {
              "internalType": "address",
              "name": "creator",
              "type": "address"
            },
            {
              "internalType": "string",
              "name": "title",
              "type": "string"
            },
            {
              "internalType": "string",
              "name": "url",
              "type": "string"
            },
            {
              "internalType": "string",
              "name": "description",
              "type": "string"
            },
            {
              "internalType": "int64",
              "name": "total_votes",
              "type": "int64"
            }
          ],
          "internalType": "struct ResourceShare.Resource",
          "name": "",
          "type": "tuple"
        }
      ],
      "stateMutability": "view",
      "type": "function"
    },
    {
      "inputs": [],
      "name": "getResources",
      "outputs": [
        {
          "components": [
            {
              "internalType": "uint256",
              "name": "id",
              "type": "uint256"
            },
            {
              "internalType": "address",
              "name": "creator",
              "type": "address"
            },
            {
              "internalType": "string",
              "name": "title",
              "type": "string"
            },
            {
              "internalType": "string",
              "name": "url",
              "type": "string"
            },
            {
              "internalType": "string",
              "name": "description",
              "type": "string"
            },
            {
              "internalType": "int64",
              "name": "total_votes",
              "type": "int64"
            }
          ],
          "internalType": "struct ResourceShare.Resource[]",
          "name": "",
          "type": "tuple[]"
        }
      ],
      "stateMutability": "view",
      "type": "function"
    },
    {
      "inputs": [],
      "name": "numResource",
      "outputs": [
        {
          "internalType": "uint256",
          "name": "",
          "type": "uint256"
        }
      ],
      "stateMutability": "view",
      "type": "function"
    },
    {
      "inputs": [
        {
          "internalType": "uint256",
          "name": "",
          "type": "uint256"
        }
      ],
      "name": "resources",
      "outputs": [
        {
          "internalType": "uint256",
          "name": "id",
          "type": "uint256"
        },
        {
          "internalType": "address",
          "name": "creator",
          "type": "address"
        },
        {
          "internalType": "string",
          "name": "title",
          "type": "string"
        },
        {
          "internalType": "string",
          "name": "url",
          "type": "string"
        },
        {
          "internalType": "string",
          "name": "description",
          "type": "string"
        },
        {
          "internalType": "int64",
          "name": "total_votes",
          "type": "int64"
        }
      ],
      "stateMutability": "view",
      "type": "function"
    },
    {
      "inputs": [
        {
          "internalType": "uint256",
          "name": "resourceId",
          "type": "uint256"
        }
      ],
      "name": "voteResource",
      "outputs": [],
      "stateMutability": "nonpayable",
      "type": "function"
    }
  ],
  "bytecode": "0x60806040523480156200001157600080fd5b506000600181905550620000cc6040518060400160405280600c81526020017f66726565636f646563616d7000000000000000000000000000000000000000008152506040518060400160405280601d81526020017f68747470733a2f2f7777772e66726565636f646563616d702e6f72672f0000008152506040518060400160405280600d81526020017f4c6561726e20746f20636f646500000000000000000000000000000000000000815250620000d260201b60201c565b6200048c565b600080600060015481526020019081526020016000209050338160010160006101000a81548173ffffffffffffffffffffffffffffffffffffffff021916908373ffffffffffffffffffffffffffffffffffffffff16021790555060008160050160006101000a81548167ffffffffffffffff021916908360070b67ffffffffffffffff1602179055506040518060c0016040528060015481526020018260010160009054906101000a900473ffffffffffffffffffffffffffffffffffffffff1673ffffffffffffffffffffffffffffffffffffffff1681526020018581526020018481526020018381526020018260050160009054906101000a900460070b60070b81525060008060015481526020019081526020016000206000820151816000015560208201518160010160006101000a81548173ffffffffffffffffffffffffffffffffffffffff021916908373ffffffffffffffffffffffffffffffffffffffff16021790555060408201518160020190805190602001906200025c929190620002f0565b5060608201518160030190805190602001906200027b929190620002f0565b5060808201518160040190805190602001906200029a929190620002f0565b5060a08201518160050160006101000a81548167ffffffffffffffff021916908360070b67ffffffffffffffff16021790555090505060016000815480929190620002e590620003e0565b919050555050505050565b828054620002fe90620003aa565b90600052602060002090601f0160209004810192826200032257600085556200036e565b82601f106200033d57805160ff19168380011785556200036e565b828001600101855582156200036e579182015b828111156200036d57825182559160200191906001019062000350565b5b5090506200037d919062000381565b5090565b5b808211156200039c57600081600090555060010162000382565b5090565b6000819050919050565b60006002820490506001821680620003c357607f821691505b60208210811415620003da57620003d96200045d565b5b50919050565b6000620003ed82620003a0565b91507fffffffffffffffffffffffffffffffffffffffffffffffffffffffffffffffff8214156200042357620004226200042e565b5b600182019050919050565b7f4e487b7100000000000000000000000000000000000000000000000000000000600052601160045260246000fd5b7f4e487b7100000000000000000000000000000000000000000000000000000000600052602260045260246000fd5b6113fb806200049c6000396000f3fe608060405234801561001057600080fd5b50600436106100625760003560e01c806319b7e5fb146100675780631e8fca2d14610083578063244d6daa146100b35780635612b146146100e85780636d81153d14610106578063c1cc57b014610122575b600080fd5b610081600480360381019061007c9190610cd4565b610140565b005b61009d60048036038101906100989190610d6b565b610356565b6040516100aa9190611039565b60405180910390f35b6100cd60048036038101906100c89190610d6b565b6105b5565b6040516100df96959493929190611076565b60405180910390f35b6100f06107b6565b6040516100fd919061105b565b60405180910390f35b610120600480360381019061011b9190610d6b565b6107bc565b005b61012a610821565b6040516101379190611017565b60405180910390f35b600080600060015481526020019081526020016000209050338160010160006101000a81548173ffffffffffffffffffffffffffffffffffffffff021916908373ffffffffffffffffffffffffffffffffffffffff16021790555060008160050160006101000a81548167ffffffffffffffff021916908360070b67ffffffffffffffff1602179055506040518060c0016040528060015481526020018260010160009054906101000a900473ffffffffffffffffffffffffffffffffffffffff1673ffffffffffffffffffffffffffffffffffffffff1681526020018581526020018481526020018381526020018260050160009054906101000a900460070b60070b81525060008060015481526020019081526020016000206000820151816000015560208201518160010160006101000a81548173ffffffffffffffffffffffffffffffffffffffff021916908373ffffffffffffffffffffffffffffffffffffffff16021790555060408201518160020190805190602001906102c8929190610b65565b5060608201518160030190805190602001906102e5929190610b65565b506080820151816004019080519060200190610302929190610b65565b5060a08201518160050160006101000a81548167ffffffffffffffff021916908360070b67ffffffffffffffff1602179055509050506001600081548092919061034b906112c7565b919050555050505050565b61035e610beb565b6000808381526020019081526020016000206040518060c0016040529081600082015481526020016001820160009054906101000a900473ffffffffffffffffffffffffffffffffffffffff1673ffffffffffffffffffffffffffffffffffffffff1673ffffffffffffffffffffffffffffffffffffffff1681526020016002820180546103eb90611233565b80601f016020809104026020016040519081016040528092919081815260200182805461041790611233565b80156104645780601f1061043957610100808354040283529160200191610464565b820191906000526020600020905b81548152906001019060200180831161044757829003601f168201915b5050505050815260200160038201805461047d90611233565b80601f01602080910402602001604051908101604052809291908181526020018280546104a990611233565b80156104f65780601f106104cb576101008083540402835291602001916104f6565b820191906000526020600020905b8154815290600101906020018083116104d957829003601f168201915b5050505050815260200160048201805461050f90611233565b80601f016020809104026020016040519081016040528092919081815260200182805461053b90611233565b80156105885780601f1061055d57610100808354040283529160200191610588565b820191906000526020600020905b81548152906001019060200180831161056b57829003601f168201915b505050505081526020016005820160009054906101000a900460070b60070b60070b815250509050919050565b60006020528060005260406000206000915090508060000154908060010160009054906101000a900473ffffffffffffffffffffffffffffffffffffffff169080600201805461060490611233565b80601f016020809104026020016040519081016040528092919081815260200182805461063090611233565b801561067d5780601f106106525761010080835404028352916020019161067d565b820191906000526020600020905b81548152906001019060200180831161066057829003601f168201915b50505050509080600301805461069290611233565b80601f01602080910402602001604051908101604052809291908181526020018280546106be90611233565b801561070b5780601f106106e05761010080835404028352916020019161070b565b820191906000526020600020905b8154815290600101906020018083116106ee57829003601f168201915b50505050509080600401805461072090611233565b80601f016020809104026020016040519081016040528092919081815260200182805461074c90611233565b80156107995780601f1061076e57610100808354040283529160200191610799565b820191906000526020600020905b81548152906001019060200180831161077c57829003601f168201915b5050505050908060050160009054906101000a900460070b905086565b60015481565b6000806000838152602001908152602001600020905080600501600081819054906101000a900460070b809291906107f390611296565b91906101000a81548167ffffffffffffffff021916908360070b67ffffffffffffffff160217905550505050565b6060600060015467ffffffffffffffff811115610867577f4e487b7100000000000000000000000000000000000000000000000000000000600052604160045260246000fd5b6040519080825280602002602001820160405280156108a057816020015b61088d610beb565b8152602001906001900390816108855790505b50905060005b600154811015610b5d5760008060008381526020019081526020016000209050806040518060c0016040529081600082015481526020016001820160009054906101000a900473ffffffffffffffffffffffffffffffffffffffff1673ffffffffffffffffffffffffffffffffffffffff1673ffffffffffffffffffffffffffffffffffffffff16815260200160028201805461094290611233565b80601f016020809104026020016040519081016040528092919081815260200182805461096e90611233565b80156109bb5780601f10610990576101008083540402835291602001916109bb565b820191906000526020600020905b81548152906001019060200180831161099e57829003601f168201915b505050505081526020016003820180546109d490611233565b80601f0160208091040260200160405190810160405280929190818152602001828054610a0090611233565b8015610a4d5780601f10610a2257610100808354040283529160200191610a4d565b820191906000526020600020905b815481529060010190602001808311610a3057829003601f168201915b50505050508152602001600482018054610a6690611233565b80601f0160208091040260200160405190810160405280929190818152602001828054610a9290611233565b8015610adf5780601f10610ab457610100808354040283529160200191610adf565b820191906000526020600020905b815481529060010190602001808311610ac257829003601f168201915b505050505081526020016005820160009054906101000a900460070b60070b60070b81525050838381518110610b3e577f4e487b7100000000000000000000000000000000000000000000000000000000600052603260045260246000fd5b6020026020010181905250508080610b55906112c7565b9150506108a6565b508091505090565b828054610b7190611233565b90600052602060002090601f016020900481019282610b935760008555610bda565b82601f10610bac57805160ff1916838001178555610bda565b82800160010185558215610bda579182015b82811115610bd9578251825591602001919060010190610bbe565b5b509050610be79190610c3a565b5090565b6040518060c0016040528060008152602001600073ffffffffffffffffffffffffffffffffffffffff168152602001606081526020016060815260200160608152602001600060070b81525090565b5b80821115610c53576000816000905550600101610c3b565b5090565b6000610c6a610c6584611111565b6110ec565b905082815260208101848484011115610c8257600080fd5b610c8d8482856111f1565b509392505050565b600082601f830112610ca657600080fd5b8135610cb6848260208601610c57565b91505092915050565b600081359050610cce816113ae565b92915050565b600080600060608486031215610ce957600080fd5b600084013567ffffffffffffffff811115610d0357600080fd5b610d0f86828701610c95565b935050602084013567ffffffffffffffff811115610d2c57600080fd5b610d3886828701610c95565b925050604084013567ffffffffffffffff811115610d5557600080fd5b610d6186828701610c95565b9150509250925092565b600060208284031215610d7d57600080fd5b6000610d8b84828501610cbf565b91505092915050565b6000610da08383610ecb565b905092915050565b610db1816111a8565b82525050565b610dc0816111a8565b82525050565b6000610dd182611152565b610ddb8185611175565b935083602082028501610ded85611142565b8060005b85811015610e295784840389528151610e0a8582610d94565b9450610e1583611168565b925060208a01995050600181019050610df1565b50829750879550505050505092915050565b610e44816111ba565b82525050565b610e53816111ba565b82525050565b6000610e648261115d565b610e6e8185611186565b9350610e7e818560208601611200565b610e878161139d565b840191505092915050565b6000610e9d8261115d565b610ea78185611197565b9350610eb7818560208601611200565b610ec08161139d565b840191505092915050565b600060c083016000830151610ee36000860182610ff9565b506020830151610ef66020860182610da8565b5060408301518482036040860152610f0e8282610e59565b91505060608301518482036060860152610f288282610e59565b91505060808301518482036080860152610f428282610e59565b91505060a0830151610f5760a0860182610e3b565b508091505092915050565b600060c083016000830151610f7a6000860182610ff9565b506020830151610f8d6020860182610da8565b5060408301518482036040860152610fa58282610e59565b91505060608301518482036060860152610fbf8282610e59565b91505060808301518482036080860152610fd98282610e59565b91505060a0830151610fee60a0860182610e3b565b508091505092915050565b611002816111e7565b82525050565b611011816111e7565b82525050565b600060208201905081810360008301526110318184610dc6565b905092915050565b600060208201905081810360008301526110538184610f62565b905092915050565b60006020820190506110706000830184611008565b92915050565b600060c08201905061108b6000830189611008565b6110986020830188610db7565b81810360408301526110aa8187610e92565b905081810360608301526110be8186610e92565b905081810360808301526110d28185610e92565b90506110e160a0830184610e4a565b979650505050505050565b60006110f6611107565b90506111028282611265565b919050565b6000604051905090565b600067ffffffffffffffff82111561112c5761112b61136e565b5b6111358261139d565b9050602081019050919050565b6000819050602082019050919050565b600081519050919050565b600081519050919050565b6000602082019050919050565b600082825260208201905092915050565b600082825260208201905092915050565b600082825260208201905092915050565b60006111b3826111c7565b9050919050565b60008160070b9050919050565b600073ffffffffffffffffffffffffffffffffffffffff82169050919050565b6000819050919050565b82818337600083830152505050565b60005b8381101561121e578082015181840152602081019050611203565b8381111561122d576000848401525b50505050565b6000600282049050600182168061124b57607f821691505b6020821081141561125f5761125e61133f565b5b50919050565b61126e8261139d565b810181811067ffffffffffffffff8211171561128d5761128c61136e565b5b80604052505050565b60006112a1826111ba565b9150677fffffffffffffff8214156112bc576112bb611310565b5b600182019050919050565b60006112d2826111e7565b91507fffffffffffffffffffffffffffffffffffffffffffffffffffffffffffffffff82141561130557611304611310565b5b600182019050919050565b7f4e487b7100000000000000000000000000000000000000000000000000000000600052601160045260246000fd5b7f4e487b7100000000000000000000000000000000000000000000000000000000600052602260045260246000fd5b7f4e487b7100000000000000000000000000000000000000000000000000000000600052604160045260246000fd5b6000601f19601f8301169050919050565b6113b7816111e7565b81146113c257600080fd5b5056fea26469706673582212204fb11cc47dfa07c360d3b1c7620c85ac0620641f3af27f48d6bac8f5e66c47a264736f6c63430008040033",
  "linkReferences": {},
  "deployedLinkReferences": {}
}